:1000000000800020BD010000CD9000008590000020
:10001000859000008590000085900000859000008C
:10002000859000008590000085900000CD90000034
:10003000CD9000008590000079B200007DB20000F4
:10004000CD900000CD900000CD900000CD9000003C
:10005000CD900000CD900000CD900000CD9000002C
:10006000CD900000CD900000CD900000CD9000001C
:10007000CD900000CD900000CD900000CD9000000C
:10008000CD900000CD900000CD900000CD900000FC
:10009000CD900000CD900000CD900000CD900000EC
:1000A0009D4C0000A94C0000CD900000CD900000B8
:1000B000CD900000CD900000CD900000CD900000CC
:1000C000CD900000CD900000CD900000CD900000BC
:1000D000CD900000CD900000CD900000CD900000AC
:1000E000CD900000CD900000CD900000CD9000009C
:1000F000CD900000D59B0000CD900000CD90000079
:10010000CD900000CD900000CD900000CD9000007B
:10011000CD900000CD900000CD900000CD9000006B
:10012000CD900000CD900000CD900000CD9000005B
:10013000CD900000CD900000518600002D8300007E
:10014000CD900000F1890000CD900000CD9000001E
:1001500069B400007DB4000091B40000A5B40000B3
:10016000CD900000959E0000CD900000CD90000045
:10017000CD900000CD900000CD900000CD9000000B
:10018000CD900000CD900000CD900000CD900000FB
:10019000CD900000CD900000CD900000CD900000EB
:1001A000CD900000CD900000CD900000CD900000DB
:1001B000CD900000CD90000035B00000564B4CF2C1
:1001C000205210B51A804DF628121A8000BF00BFC9
:1001D00000F0A6FB514B4FF010621A60504A9A6033
:1001E000504ADA60504A136813F4807304D14F49BF
:1001F0000B604FF4A85313604D4B1A78110703D5C9
:100200001A7842F008021A704A4B4B492A221A7097
:100210004A4A4B4B8B4204D252F8040F43F8040B6A
:10022000F8E7484B484900228B4202D243F8042B9E
:10023000FAE74649464A002352F8230041F82300D2
:1002400001336F2BF8D1434B434A802103F8011B44
:100250009342FBD1414B3D4A1A60414B8A221A70AE
:10026000A3F5805324225A70A0221A709A7992071B
:10027000FCD59A79D406FCD43A4A937903F00C035E
:10028000082B384BF9D105221A7143225A719A79F9
:100290009006FCD5334A9179324B4906FBD5324A58
:1002A0004FF0817111600521516020221A709A79F6
:1002B00002F00C020C2AFAD12C4B2D4A1A602D4B5D
:1002C0002D4A1A6000225A60072243F8042C2B4A58
:1002D000C3F80C2D62B609F0DFF8144B1B68DA077F
:1002E00005D5274809F05CF8264B274A1A60274BAA
:1002F0001B785B0609D5234C234B22689A4204D114
:100300001F4809F04DF8002323600EF017FA08F09B
:10031000E1FE0BF09FFBFEE70E200540308004401D
:10032000823F04000100002B10D0034014D0034092
:1003300002D0074000E00740F0000020FC6C020003
:1003400020EFFF1FF0000020301F002000EAFF1FF9
:100350000000000000E400E05FE400E008ED00E0E1
:1003600000500640004006404480044004800440A1
:10037000C010050014E000E03F190100000020203B
:1003800025DC93611CE00340A5C3945A00F00740AC
:10039000FFFFFFFFFFFFFFFFFFFFFFFFFFFFFFFF6D
:1003A000FFFFFFFFFFFFFFFFFFFFFFFFFFFFFFFF5D
:1003B000FFFFFFFFFFFFFFFFFFFFFFFFFFFFFFFF4D
:1003C000FFFFFFFFFFFFFFFFFFFFFFFFFFFFFFFF3D
:1003D000FFFFFFFFFFFFFFFFFFFFFFFFFFFFFFFF2D
:1003E000FFFFFFFFFFFFFFFFFFFFFFFFFFFFFFFF1D
:1003F000FFFFFFFFFFFFFFFFFFFFFFFFFFFFFFFF0D
:10040000FFFFFFFFFFFFFFFFFFFFFFFFDEF9FFFF23
:1004100010B5054C237833B9044B13B10448AFF33E
:1004200000800123237010BDF000002000000000B8
:10043000F86C0200084B10B51BB108490848AFF32F
:1004400000800848036803B910BD074B002BFBD0A0
:10045000BDE81040184700BF00000000F400002075
:10046000F86C0200F000002000000000002070473F
:10047000704700BF027C02F0080202F0FF0332B1B5
:10048000C36A406A181A48BF6FF0004070471846A8
:10049000704700BFF8B55548554D564C297803783C
:1004A0002278DFF868E1544F544E120442EA0323E5
:1004B000FF222A700270802022708EF800003870AF
:1004C000B2794F480B4312F00C0FC36002D1B379DD
:1004D000DC063DD4494A9379C3F38103032B40D012
:1004E000464B9A79C2F38102022A42D0434A937959
:1004F000C3F38103022B53D0404A9379C3F38103A2
:10050000022B61D03D4A9379C3F38103012B51D073
:100510003A4A9379C3F38103012B5CD0374B9A7924
:1005200012F00C0F03D19A79D20600D49B79354D85
:10053000354B2A7853F82240D4B1236820469B6873
:1005400098472B7804EB83046468002CF5D1F8BD40
:10055000B3799806EBD5294A9379C3F38103032B2A
:10056000BED19379D906BBD493799B06DFD4B7E784
:10057000F8BD9A79D706B9D49A799606B6D559783E
:1005800001F0020101F0FF020029AFD120211A7011
:100590001A461970937903F00C030C2BFAD1C6E7B5
:1005A0009379DD06A8D493799C06A5D4537898074F
:1005B000BDD5A1E79379DF06AAD593799E06A7D486
:1005C00053789D07B3D4A3E79379D9069AD4537887
:1005D0009B07ACD496E79379DC069FD59379980670
:1005E0009CD453789907A2D598E700BF06C007406E
:1005F00005C0074007C0074009C00740004006404B
:10060000081F0020681A0020281A002008C0074090
:1006100090F92410104B03604B1C06D0F0B40F4E21
:1006200056F82130984201D0F0BC70470C4F57F873
:10063000213033B18D0000245A1953685460002BC7
:10064000FAD1084C23780022013B237047F821207F
:1006500046F82120E8E700BF245D0100481A002089
:10066000281A0020691A002038B590F924506B1C14
:100670001BD00E4B0E4953F825400E4BEDB24FF0F8
:10068000FF320D701A6084B1AD0002E02C44646842
:100690005CB194F82530002BF8D0236820462C4418
:1006A0001B6898476468002CF3D138BD281A0020D5
:1006B000681A002090E9FF1F704700BF024A1368C4
:1006C00001331360704700BFD00A002090F9241056
:1006D000104B03604B1C06D0F0B40F4E56F821307F
:1006E000984201D0F0BC70470C4F57F8213033B11D
:1006F0008D0000245A1953685460002BFAD1084C1D
:1007000023780022013B237047F8212046F821205E
:10071000E8E700BF245D0100481A0020281A0020E5
:10072000691A002090F92410104B03604B1C06D06E
:10073000F0B40F4E56F82130984201D0F0BC70470B
:100740000C4F57F8213033B18D0000245A195368EB
:100750005460002BFAD1084C23780022013B23700F
:1007600047F8212046F82120E8E700BF245D01007A
:10077000481A0020281A0020691A0020103005F0BD
:100780002DB800BF00B583B002AB012203F8011DF4
:100790001030194605F022F803B05DF804FB00BFE5
:1007A000103004F03DBF00BF00B583B001220DF151
:1007B0000701103004F032FE01280CBF9DF807003D
:1007C0004FF0FF3003B05DF804FB00BF103004F0C1
:1007D000FFBF00BF08F0DEBD2DE9F0410E468046A8
:1007E00008F0D8FD174D286006F0C2FD07462868BE
:1007F00006F0B0FD0446286806F09EFD6401C0B214
:1008000004F4FF54BFB20443A7F2BC7744EA472480
:10081000A8F80040286806F065FD0746286806F03D
:100820006FFD0446286806F079FDFF02640107F4B5
:10083000FF2704F4FF54C0F346003C4304433480D4
:10084000BDE8F0818C01002010B5034B0360044625
:1008500007F06EFE204610BD806C010010B5044606
:100860000AF0E0FD204610BD10B504460AF08CFBEE
:10087000204610BD30B51649164D174C2A680B6836
:10088000ADF5017D0133013220460B602A6003F093
:100890005DFE4FF4807501462A46684608F05AF915
:1008A000204603F071FE204603F050FE2A46014622
:1008B0000DEB050008F04EF9204603F065FE694691
:1008C0004FF40072054804F089FF0DF5017D30BD3D
:1008D000580A002050010020A008002064190020C0
:1008E00070B5044608460D460EF0EAFE236802463F
:1008F000294620465B68BDE87040184738B5044675
:1009000008460D460EF0DCFE2368024629465B6869
:1009100020469847054620460AF00AFE284438BD7E
:10092000464A474B102010801B781B0734D5F0B582
:10093000444E454D454C31782B782278DFF82CE138
:10094000434F824042EA03230B43FF22802132704F
:100950002A7022708EF800103970D9073D4A14D5DC
:100960001A2393603C4F3D4E3D4D3E4C3E4910791D
:1009700000233B7053709370D370D3603370137146
:100980002B70237013700870F0BD1F0705D4DE06AE
:1009900006D504239360E5E7704721239360E1E7E0
:1009A0009D0604D45C0604D516239360DAE79060B4
:1009B000D8E7180602D509239360D3E7D90502D5F5
:1009C0000A239360CEE79F0502D50D239360C9E704
:1009D0005E0502D50B239360C4E71D0502D51E23D7
:1009E0009360BFE7DC0402D502239360BAE7980462
:1009F00002D507239360B5E7590402D50623936017
:100A0000B0E71F0402D515239360ABE7DE0302D5E0
:100A100024239360A6E79D0302D522239360A1E7D8
:100A2000DC0202D5252393609CE71803F5D4590313
:100A3000F3D49B0244BF2323936093E70020054037
:100A400002D0074005C0074006C0074007C0074066
:100A500009C00740081F002000C0074001C0074030
:100A600002C0074003C0074004C0074008C0074059
:100A7000002976D02DE9F04F0C469100631883B021
:100A80005D68002D57D06B185E68002E50D073182B
:100A90005F68002F49D07B18D3F80480B8F1000FAD
:100AA0003CD008EB0103D3F80490B9F1000F32D029
:100AB00009EB0103D3F804A0BAF1000F27D00AEB29
:100AC0000103D3F804B0BBF1000F18D00BEB010306
:100AD0005B6863B1194401934968FFF7C9FF019B43
:100AE00093F825201AB11A681846536898479BF85E
:100AF000253023B1DBF8003058465B6898479AF8F8
:100B0000253023B1DAF8003050465B68984799F8F1
:100B10002530002B35D198F8253063BB97F8253068
:100B20001BB13B6838465B68984796F82530CBB9CF
:100B300095F8253063B994F8253013B903B0BDE8B2
:100B4000F08F23685B68204603B0BDE8F04F18477C
:100B50002B6828465B68984794F82530002BEDD029
:100B6000EFE77047336830465B68984795F8253063
:100B7000002BE0D0ECE7D8F8003040465B6898479F
:100B8000CCE7D9F8003048465B689847C3E700BF18
:100B900090F92420531C26D01B4B2DE9F04153F82B
:100BA0002240D2B2ECB19300E1184D68B5B1E9181A
:100BB0004E6866B1F1184F6837B13B445968FFF78A
:100BC00057FF97F82530A3B996F8253063B995F803
:100BD00025301BB12B6828465B68984794F8253070
:100BE00063B9BDE8F0817047336830465B68984769
:100BF000EDE73B6838465B689847E5E723682046A1
:100C00005B68BDE8F0411847281A002008B5054880
:100C100003F06AFC012803DDBDE80840FFF72ABEA7
:100C200008BD00BFA008002070B5124C124D13483B
:100C30000D2109F09DFF20460AF07AFC2E8810480D
:100C4000102109F095FF314620460AF0C1FC2046EC
:100C50000AF06EFC0B4A0C4B12882A800B480022CB
:100C600083F8F62004F076FA6420BDE8704008F0BE
:100C7000C3BB00BF8CF6FF1F801E0020305D01004B
:100C8000405D0100A81E0020A0080020641900207B
:100C9000434B93E8030070B5424C434D434E012350
:100CA000238184E803000822414904F10C000EF07E
:100CB000C5FD08223F4904F114000EF0BFFD0822D3
:100CC0003D4904F11C000EF0B9FD08223B4904F136
:100CD00024000EF0B3FD2946082204F16C000EF04A
:100CE000ADFD2946082204F174000EF0A7FD294647
:100CF000082204F17C000EF0A1FD2946082204F12F
:100D000084000EF09BFD2E4A2E4B106819680DF0E2
:100D10005BF82D4AC4F8CC00034692E8030009258D
:100D200004F5FC72C4F8D030C4F8D430C4F8D8301C
:100D300082E8030008222549A4F8005204F5017056
:100D40000EF07CFD0822224904F503700EF076FDBA
:100D50000822204904F505700EF070FD3146082286
:100D600004F519700EF06AFD3146082204F51B7077
:100D70000EF064FD3146082204F51D700EF05EFD94
:100D8000154B18680DF0D4F84FF060510DF024F9B0
:100D9000C4F8C402C4F8C802C4F8CC0270BD00BFD5
:100DA000545D0100000C0020805D01003C5D0100ED
:100DB000605D0100685D0100705D0100785D01000B
:100DC000040A002034F0FF1F9C5D0100845D0100D7
:100DD0008C5D0100945D010004F0FF1FF0B58FB041
:100DE00000230EAD8DF814308DF815308DF80830D5
:100DF0008DF810304FF47A7446231D4E1D4A1E495B
:100E0000039405A845F8346D04F0A8FA9DF8143051
:100E100013BB002446234FF47A77184A16490196EB
:100E200005A88DF814408DF815408DF808408DF810
:100E30001040039704F092FA9DF8143053B17E22CB
:100E40000F4905A804F0CAFC28460AF071FB05A862
:100E500004F080F90FB0F0BD4F220A4905A804F054
:100E6000BDFC28460AF064FB05A804F073F9D0E73E
:100E7000005D0100A45D010058080020FC5D010038
:100E8000045E0100AC5D01002DE9F047504B514E6E
:100E90001968DFF86491504D90B000234FF07E50F8
:100EA00033600DF04DF94FF47A710024C9F8000059
:100EB0004623059107A8494A49498DF81C408DF8F9
:100EC0001D408DF810408DF81840039504F046FA47
:100ED0009DF81C30002B71D0DFF820A1DFF82081B5
:100EE000404FDAF8001003A80AF072FB01223E49D5
:100EF00007A804F073FC30680CF0C4FB02250B4615
:100F00000246009503A80AF06BFB0122364907A8A8
:100F100004F064FC38F8140000B20DF009F8D7F8BA
:100F2000C4120DF059F80CF0ADFB00950B460246CB
:100F300003A80AF055FB01222B4907A804F04EFC38
:100F4000631C38F8130000B20CF0F2FFD7F8C81297
:100F50000DF042F80CF096FB00950B46024603A8F4
:100F60000AF03EFB0122204907A804F037FC631970
:100F7000033438F8130000B20CF0DAFFD7F8CC12C3
:100F80000DF02AF80CF07EFB00950B46024603A8F4
:100F90000AF026FB0122154907A804F01FFC30685F
:100FA000D9F800100CF010FFB4F5967F306098D19E
:100FB00007A804F0CFF810B0BDE8F08712210C4864
:100FC00009F0D6FD0B480AF0B3FA10B0BDE8F0877F
:100FD0004CF0FF1F0C110020005D0100FC5D0100C2
:100FE00058080020000C0020845E0100885E01008B
:100FF0008C5E01008CF6FF1F640A00208001002037
:101000009C01002010B5294C29482278114602F095
:10101000C5FF23680F2B0CD8DFE803F00C10141861
:101020001C2024282C3034383C404408214B224AD0
:101030001A6010BD1F4B214A1A6010BD1D4B204A7B
:101040001A6010BD1B4B1F4A1A6010BD194B1E4A77
:101050001A6010BD174B1D4A1A6010BD154B1C4A73
:101060001A6010BD134B1B4A1A6010BD114B1A4A6F
:101070001A6010BD0F4B194A1A6010BD0D4B184A6B
:101080001A6010BD0B4B174A1A6010BD094B164A67
:101090001A6010BD074B154A1A6010BD054B144A63
:1010A0001A6010BD034B134A1A6010BD30F0FF1FC9
:1010B000F0100020040A0020BD549341103377C083
:1010C000993918C0BE0D68BFCE71153F8D09034018
:1010D000CCC9624009A7A3407DDBD140C4160141C1
:1010E00054FC1741D0E83041195546419FAB5F4150
:1010F000A04176415E2E864170B472B61B491C4BEE
:101100001C4841250E2480220D70047019461A7067
:101110000B78174A1806FBD5174B18481D78184C42
:1011200018490570033B247809781B78C370447014
:10113000817062B672B60D490E4C41260F25802390
:101140000E702570114613700B781B06FCD50A4CE7
:101150000B490C4A0C4B2478097812781B78C37120
:1011600004714171827162B670BC70470700024021
:1011700000000240060002400B0002404C19002013
:101180000A000240090002400800024070B5002138
:10119000282008F02BF9104D2024282007F0ACFE61
:1011A0000CF0C6FE29680C4E0CF00EFE013C2860C7
:1011B000F3D10A490CF010FF4FF06A510CF00CFF0C
:1011C0004FF074510CF008FF01213060282008F026
:1011D0000DF9306870BD00BFA01900208EC2DD403F
:1011E0002DE9F04F95B008F0D5F8A14CA14D206045
:1011F00006F0B0F82B68984200F006820A219E485B
:101200009E4EDFF8E48209F0B3FC9D480AF090F9A5
:10121000206806F09FF82860206806F0A9F82B687F
:101220009849024698480EF01DF900250123964A78
:101230009649C6F8008007A88DF81C508DF81D50FF
:1012400004F032F82068924FDFF8A09206F074F8AC
:101250000546206806F046F88346206806F050F8F8
:101260008246206806F05AF82B46874A8949029040
:10127000CDF800B0CDF804A087480EF0F3F8C6F81A
:101280000080FFF783FF0021386046238DF82C1083
:101290008DF82D108DF820108DF828100BA84FF424
:1012A0007A747E4A79490994CDF81C9004F056F876
:1012B0009DF82C30002B40F01B810E21784809F05E
:1012C00057FC784B784A1A604FF47A750024C22391
:1012D000714A6E4909950BA80BAD8DF82C408DF81D
:1012E0002D408DF820408DF82840CDF81C9004F05A
:1012F00035F80FCD6D4E9DF82040347106F1100485
:101300000FC40FCD0FC4099A9DF82830B260337313
:101310002968614821600EF0D3F901465E4809F062
:1013200027FC57480AF004F90A21614809F020FC1B
:10133000604B18680CF0A6F9022402460B46009494
:101340004F480AF04DF94E480AF0F2F838680CF0B0
:1013500099F900940B46024649480AF041F90121E7
:10136000554809F005FC46480AF0E2F8337C002BAA
:101370003CD1524F3B885249474801339BB21A46F1
:101380004FF47A7500243B800EF06CF8C223424A79
:101390003E4909950BA80BAD8DF82C408DF82D40DA
:1013A0008DF820408DF82840CDF81C9003F0D6FF32
:1013B0000FCD444C9DF820C09DF828E086F804C06D
:1013C0000FC40FCD0FC42B682360099BB36086F850
:1013D0000CE031480EF074F901462F4809F0C8FBC3
:1013E00027480AF0A5F8337C002BC3D0364837498C
:1013F0000768374C374A384B384D03C9206092E8AC
:101400000300A06093E8030010260123A382E38277
:10141000E060266138460CF0E1FF3946A0613846AD
:101420000CF0D2FC0CF0DAFF2D4AE0612B686684E8
:1014300092E803005B0203F12406606221462C223D
:1014400002272048A3622784666004F0C7F90921B7
:10145000244809F08DFB2968094800230A220AF074
:1014600077F807480AF064F815B0BDE8F08F00BFC0
:101470008C0100205C0A0020A05E0100201A0020E0
:101480008CF6FF1FAC5E0100881900205808002070
:10149000A0190020B85E010034010020A45D010005
:1014A000FC5E01000CED00E00400FA055419002078
:1014B0000C5F0100B00A0020185F0100001100203D
:1014C000485F01006419002044F0FF1F1C5F010009
:1014D00054010020245F01002C5F0100A4190020AA
:1014E000345F01003C5F0100D9070000005D01008E
:1014F0005448554C0EF0E4F8524902460BA804F04B
:101500006DF914A92C2301F83B3D01220DEB0300DA
:1015100004F064F904F1080514F8011F00230A22FD
:1015200007A80AF015F8A542F6D114A92C24012227
:1015300001F8354D0DEB040004F050F9434907A8BC
:101540000AF046F814A9012201F8364D0DEB04000B
:1015500004F044F93E4B18680CF094F802250B4651
:101560000246009507A80AF03BF814A9012201F8E9
:10157000374D0DEB040004F031F938680CF082F8B7
:1015800000950B46024607A80AF02AF814A9012282
:1015900001F8384D0DEB040004F020F92D4B1868CC
:1015A0000CF070F804250B460246009507A80AF0D7
:1015B00017F814A9012201F8394D0DEB040004F0CD
:1015C0000DF9254B18680CF05DF800950B460246A6
:1015D00007A80AF005F814A9012201F83A4D0DEB0D
:1015E000040004F0FBF81D4B07A8196809F0F0FF90
:1015F00007A809F09DFF1A4938680CF08BFE38B92E
:101600000BA803F0A7FD5FE6164EDFF8608019E631
:10161000282215490DEB040004F0E0F807A809F0B2
:1016200087FF0DEB040003F095FD03E047F2305017
:1016300007F0E2FEFFF7AAFD09490CF06BFE002857
:10164000F4D1DDE7340100204B1900209D65340101
:10165000040A0020680A0020A0090020B019002018
:1016600000004040201A0020D05E0100D907000091
:1016700038B50E4C0E480F4D0E2109F079FA204670
:1016800009F056FFFFF7ACFD0B4B284600221A600D
:1016900002F036FF01230B21084885F8F63009F0E7
:1016A00067FA2046BDE8384009F042BF8CF6FF1FBC
:1016B000545F0100A008002050010020645F010079
:1016C00008B50D21184809F053FA184809F030FF01
:1016D0001749184A00230B70136007F05BFE164A87
:1016E000164B174910601A68164B93FBF2F2002A4A
:1016F000086003DB144B511E99420AD9134B196839
:10170000FF221A7121B1124B12480B441B111A54BB
:1017100008BD02EBC2029200013A232AEED00E4924
:101720000A4809F035FEE9E7705F01008CF6FF1FFB
:1017300090010020B40A00208001002038F0FF1F33
:101740008C01002040420F00C7711C07F80B0020DD
:10175000008FFCBF44E400E0BD0600002DE9F04D21
:101760008D4B8E4E1B6834688D498E488E4DDFF848
:101770008482DFF884A2DFF884B286B01C1B0AF0F2
:1017800097F88A4987480AF093F8214685480AF075
:10179000F7F8874983480AF0D1F8316881480AF0A0
:1017A000EFF883497F480AF0C9F8824B0422196890
:1017B00002A80AF063F802A97A480AF0BBF802A866
:1017C00009F0E6FF7A4977480AF0B8F87A4B042224
:1017D000196802A80AF052F802A972480AF0AAF899
:1017E00002A809F0D5FF72496E480AF0A7F8002454
:1017F0004AE0724B18680CF09BFB014630460CF037
:101800009FFC0BF03FFF0BF0A9F90646D8F800004B
:101810000F460BF037FF0BF0A1F90022CDE90001D4
:10182000674B304639460BF081FF002206460F46D3
:10183000644BDDE900010BF079FF02460B463046B0
:1018400039460BF0BFFD0CF069FADAF80010554E7E
:101850000CF0B8FADBF800100CF0B4FA0CF098FDBC
:101860002146074630460AF077F8574930460AF0D5
:1018700065F8394630460AF06FF8013430464C4975
:101880000AF05CF80A2C1AD055F8046B4F49304620
:101890000CF05EFD0028ACD1D8F800000BF0F2FE91
:1018A0000BF05CF90022474B0BF040FF02460B4661
:1018B000002047490BF086FD0CF030FAC5E745499A
:1018C00030460AF03BF8444B0122196802A809F09F
:1018D000D5FF02A930460AF02DF802A809F058FFFA
:1018E000334930460AF02AF83C4902A809F090FF33
:1018F00002A930460AF01EF802A809F049FF304656
:101900000AF07AF8364930460AF018F800213046D5
:101910000AF04AF80378B168A3F12403B3FA83F319
:101920005B098B422DD2C25C034452B30139084497
:10193000002402E013F8012F1AB1834284EA020462
:10194000F8D12849174809F0F9FF102C1ED91022A8
:10195000214602A809F07EFF02A9124809F0EAFF19
:1019600002A809F015FF06211F4809F001F90D49E9
:101970001E4809F0B7FD1D4809F0DAFD06B0BDE8C4
:10198000F08D1849074809F0D9FF00241849054887
:1019900009F0D4FFDBE700BFEC10002018F0FF1FB8
:1019A0005063010090080020300A00208C5F010085
:1019B000945F0100680A0020A009002004110020A3
:1019C0000000344000002440F0600100ACC527371F
:1019D000000058C0985F0100A0190020080B0020EB
:1019E000905F01009C5F0100A05F01008CF6FF1F6B
:1019F000686802009401002034F0FF1F040A0020F0
:101A000030B51E4C83B0204606F03EFA2046012138
:101A100005F090FF2046012105F086FF20460022B8
:101A2000412105F07DFF204600225A2105F078FF74
:101A3000134B18680BF026FE01250B460246009555
:101A4000204609F0CDFD2A4620460E4909F034FD16
:101A5000204609225A2105F063FF0B4B20461968E6
:101A600009F0B6FD00222046114605F059FF204638
:101A700003B0BDE8304006F087BB00BFA4090020DA
:101A8000A0190020185F0100040B002008B50121F7
:101A9000082007F0ABFC0121082007F093FC00218F
:101AA000282007F0A3FC002007F000FA0121052000
:101AB00007F09CFC0121052007F084FC0620002192
:101AC00007F094FCFFF79CFF0248BDE8084006F0D1
:101AD0005BBB00BFA409002008B5104B1B789BB16D
:101AE000FFF78EFF03220E490E4809F0E5FC0D4872
:101AF00009F01EFD0C490B4809F0F4FC094809F0F7
:101B000017FD084806F040FB0749084809F0EAFCC1
:101B1000064809F00DFD012008BD00BF40F0FF1F81
:101B2000A85F0100A40900209008002064F6FF1FB0
:101B300008B50121244805F0F7FE0121224805F0EF
:101B4000F9FE00221146204805F0EAFE1F4B1B68F3
:101B5000BBB903221E491C4809F0AEFC1A4809F023
:101B6000E7FC1C4A1C4B11681B681748C91A09F08E
:101B70002FFD01221949144809F09EFC124809F072
:101B8000D7FC04221649104809F096FC154B0E4864
:101B9000196809F01DFD012210490B4809F08CFC61
:101BA00008221149084809F087FC104B06481968BB
:101BB00009F00EFD01220949034809F07DFC0248A5
:101BC000BDE8084009F0B4BCA409002008110020B9
:101BD000AC5F0100AC0A00208C0100207C5F01009A
:101BE000B05F010018F0FF1FB85F010000F0FF1F99
:101BF00010B5012204460849084809F05DFC092C8B
:101C000004DC01220649054809F056FC2146034838
:101C1000BDE8104009F0DCBCF0600100A409002020
:101C20006868020030B583B002AD079C05F8082D46
:101C30008DF80200069A8DF804304E3428468DF84F
:101C400001108DF805208DF8064005F0A1FB07F086
:101C5000A7FB03B030BD00BF38B5054605F088FBD3
:101C60001E4C0146204609F0B3FC2D2009F004F873
:101C7000284605F06FFB0146204609F0A9FC2D20FF
:101C800008F0FAFF284605F057FB0146204609F008
:101C90009FFC0121124808F06BFF284605F022FB4B
:101CA0000146204609F094FC3A2008F0E5FF28465A
:101CB00005F026FB0146204609F08AFC3A2008F090
:101CC000DBFF284605F02AFB0146204609F080FC90
:101CD0002046BDE8384009F02BBC00BF8CF6FF1F42
:101CE00044620100F8B504460BF0CCFC00220F4B17
:101CF0000AF0D2FE06460F4620460D490CF020FAA7
:101D00000CF046FB0CF014F90BF0BCFC002204466E
:101D10000D46084B304639460BF032FE02460B4664
:101D2000204629460BF050FBF8BD00BF000059408B
:101D30000000C84200004E402DE9F04F242895B025
:101D400002AF0FD0AD4BAE4C1A68511CFF29A05406
:101D5000C8BF002207F14C07D4BF19601A60BD4606
:101D6000BDE8F08FA54DA64C2A680A2A6CDD66787E
:101D700094F8028094F803C094F804E094F8059075
:101D8000A07994F807B0217AA37A502E08BFB8F151
:101D90004D0F0CBF4FF0010A4FF0000ABCF1540F79
:101DA00014BF4FF0000A0AF0010ABEF14B0F14BF36
:101DB0004FF0000A0AF0010AB9F14C0F14BF4FF0BE
:101DC000000A0AF0010A4F2814BF00200AF001009F
:101DD000BBF1580F14BF002000F0010094F809A0D7
:101DE0002C2914BF002100F00101BAF1320F14BFF9
:101DF000002101F00101E07A2A2B14BF002301F039
:101E00000103342814BF002303F001032BB1237B0B
:101E1000372B02D17B4B01211970472E08BFB8F137
:101E2000500F0CBF01260026BCF1520F14BF002634
:101E300006F00106BEF14D0F14BF002606F00106A4
:101E400016B1B9F1430F07D0242201234C37227079
:101E50002B60BD46BDE8F08F02F1080307F148068C
:101E600023F007032C21E946ADEB030D26F8341DC2
:101E700002AB1846624906F06DFE31460EF08AFC50
:101E8000014607F138000DF0A9FB314600200EF0A5
:101E900081FC07F118025C4980460DF009FB5B4BA1
:101EA0005B4A009340465B4B5B490DF001FB3146BA
:101EB00000200EF06FFC0146381D0DF08FFB3146FF
:101EC00000200EF067FC07F11C024F490DF0F0FAFC
:101ED000314600200EF05EFC014607F108000DF0CF
:101EE0007DFB314600200EF055FC07F120024649EB
:101EF0000DF0DEFA314600200EF04CFC014607F1F1
:101F00000C000DF06BFB314600200EF043FC07F196
:101F100024023D490DF0CCFA314600200EF03AFC87
:101F200007F1280238490DF0C3FA314600200EF0BF
:101F300031FC0146804607F140000DF04FFB374B66
:101F4000374A00933449374B40460DF0B1FA3146D9
:101F500000200EF01FFC07F12C022B490DF0A8FA0F
:101F6000314600200EF016FC014607F110000DF07E
:101F700035FB314600200EF00DFC014607F1300024
:101F80000DF02CFB3B79412B01D0CD465CE73A7A32
:101F9000F869DFF8A4803B7B234E396AC8F800005B
:101FA000532A08BF00F10040DFF890C0DFF890E04E
:101FB00008BFC8F80000572B316008BF01F100418D
:101FC0008CF800208EF8003008BF3160FFF78AFEE1
:101FD0000BF0A4FEC8F800003068FFF783FE0BF09A
:101FE0009DFE124B306001220F2111481A6008F04B
:101FF000BFFD104809F09CFACD4625E7481800209F
:102000004C1800209C0900208860010094190020D1
:1020100010F0FF1F0CF0FF1F8C60010024F0FF1F69
:1020200020F0FF1F08F0FF1FA0090020B0190020BA
:10203000986001008CF6FF1F680A002088010020CC
:10204000A81900202DE9F041464B474E1B78326815
:1020500084B00192019F002B6AD1444DDFF83C818E
:10206000002340F6A6602B6006F0BCF90D21404825
:1020700008F07EFD3F4809F05BFA642007F0BCF9E8
:1020800031223D493D4809F017FA3C4809F050FA21
:1020900007213B4808F06CFD364809F049FA3368DF
:1020A0000293029A2B68D8F80010D21BB3FA83F37C
:1020B0008A424FEA531310D27BB1304806F082F9BE
:1020C00000282E48EBDD06F047F9C4B2204608F0A0
:1020D000D3FD2046FFF730FEEFE71021294808F036
:1020E00047FD33680393039922480023C91B0A2242
:1020F00009F02EFA1F4809F01BFA312222491F4825
:1021000009F0DAF91D4809F013FAC82007F074F94C
:1021100006F00EFA09211D4808F02AFD2968154825
:1021200009F056FA134809F003FA04B0BDE8F0814B
:10213000FFF766FC03221649164809F0BDF9154859
:1021400009F0F6F9134809F0F3F90C221249114885
:1021500009F0B2F90F4809F0EBF90E4806F014F84F
:102160007BE700BF40F0FF1FE41C0020B0190020F7
:10217000BC6001008CF6FF1F18600100B41900203C
:10218000CC600100D4600100E45F0100E860010060
:10219000A8600100A4090020AC6001001CF0FF1F32
:1021A00070B59AB000264FF47A752D4C2D480295E3
:1021B00000948DF810608DF811608DF804608DF832
:1021C0000C6002F0C7FF284901F23C4003F020F9FF
:1021D0000123264A23490D9411A811AC0F958DF8BF
:1021E00044608DF845608DF838608DF8406003F0EC
:1021F000B5F80FCC04AD0FC50FCC0FC59DF810007E
:1022000024689DF838100F9A9DF840302C608DF8A6
:10221000041002928DF80C3008B91AB070BD334624
:10222000C822134904A803F0BFF9B04204A812DD84
:1022300002F090FF0B210F4808F09AFC0C480DF0BB
:102240003FFA01460A4808F093FC0B4809F070F980
:1022500001201AB070BD02F07DFF3046DDE700BFFF
:10226000005D0100580800201C040020F4600100FB
:10227000080B0020046101008CF6FF1F2DE9F047D8
:1022800024288AB004AF0ED08B4B8C4C1A68511C9A
:10229000FF29A05407F11807CABF002219601A606D
:1022A000BD46BDE8F087844D8548844C102108F078
:1022B0005FFC2968834809F08BF9824809F038F9F6
:1022C00020460DF0FDF90146204608F051FC7D48FE
:1022D00009F02EF92B680A2B40F399806278A178D7
:1022E000442A32D1542930D104F1040EBEE807004B
:1022F000083323F00703E846ADEB030DBEF80030CA
:10230000ADF81C30069204AE049005916E4816217B
:1023100008F02EFC30460DF0D3F90146304608F0A7
:1023200027FC684809F004F968486949694A6A4B1A
:102330000390029101920093684A6949694B3046C3
:102340000DF0B6F86278A178C546472A4BD14E29E0
:1023500049D12A68644902F1080323F007036E4655
:10236000ADEB030D0DF11008043A404606F0F2FB08
:10237000F81C07F1140107F1100207F10C03039098
:102380000291019200933A1D07F108035749404614
:102390000DF08EF8D5F800905549A9F1050A52467E
:1023A000404606F0D7FB9DF81020A2F12402B2FAB5
:1023B00082F2520992457CD918F802104244002951
:1023C00075D0A9F10609C844002302E012F8011FE4
:1023D00019B14B409045DBB2F8D1FA789A4252D00D
:1023E0006278A178B546522A11D154290FD12B68B1
:1023F000227B083323F007036E462A2AADEB030D38
:102400000DF1100824D0637B2A2B08D0B546242276
:102410000123183722702B60BD46BDE8F087354B8D
:1024200035481B68C8F800300F2108F0A1FB404672
:102430000DF046F90146404608F09AFB214809F0A4
:1024400077F840462D4A2E490DF032F8B546DEE7C2
:10245000284B29481A889B78ADF810200F2188F85E
:10246000023008F085FB40460DF02AF9014640464F
:1024700008F07EFB134809F05BF8204A20494046EB
:102480000DF016F8BFE71F4A7968DFF884E01E4BAD
:10249000D7F808C011601D48CEF800C001220F21F6
:1024A0001A6008F065FB074809F042F898E70B4608
:1024B00093E7002391E700BF481800204C18002044
:1024C000106101008CF6FF1F2461010094190020A7
:1024D0000CF0FF1F10F0FF1F20F0FF1F24F0FF1F64
:1024E0003C61010008F0FF1F5018002050610100FE
:1024F0004D1800205518002068610100040B0020D1
:1025000078610100680A0020B0190020986001007D
:10251000A009002010B508E007F0EAFAC4B220468E
:10252000FFF7ACFE204608F0A7FB07F0D1FA002821
:10253000F2D110BD2DE9F04F05469D4E9D4FDFF8BD
:102540008C8296F800E02F60FF2085F82400DFF8E9
:10255000809298F80000BEF1060F59F820E04FF085
:1025600000038DB00C4685F8253085F8263098BFDD
:102570003370BEF1000F00F0AD808E455ED0734623
:10258000810001E09C4259D00B445B68002BF9D1DB
:10259000734600E053460B44D3F804A0BAF1000F91
:1025A000F8D15C603478029705EB010B4FFA80FCA0
:1025B000FF23062CCBF804A08DF82DA08DF82EA0BB
:1025C00085F824C08DF82C30744604D8002333706D
:1025D000002C00F0B480A24229D0234601E09342AF
:1025E00025D00B445B68002BF9D104EB010EDEF81B
:1025F0000440002CF9D1CEF804200CAB1944BCF1F6
:10260000FF3F00F101034FF0000041F8240C88F86F
:1026100000308DF82CC0029705D0674951F82C2066
:1026200002AB9A4276D028460DB0BDE8F08F01305B
:1026300088F8000028460DB0BDE8F08F3178029789
:10264000FF24002306298DF82C408DF82D308DF8BD
:102650002E30574C00D823709645E8D07346810041
:1026600001E09A42E3D00B445B68002BF9D18E4421
:10267000DEF804402CB1A6468E44DEF80440002C5F
:10268000F9D10CAB46B219440130731CCEF80420CA
:1026900088F8000041F8244C02978DF82C60C2D0D5
:1026A000454951F8262002AB9A42BCD159F8263050
:1026B000B00023B11A1853685460002BFAD198F86F
:1026C00000300022013B88F8003049F8262041F80C
:1026D0002620A8E700283AD0374B96F800E043F8C8
:1026E0002050810005EB010C002349F820408DF8B3
:1026F0002D30CCF804308DF82E304FFA80FCFF23BB
:10270000BEF1060F029785F824C08DF82C307FF6B5
:102710005DAF5DE759F82C304FEA8C0423B11A19EC
:1027200053685060002BFAD198F800300022013B2A
:1027300088F8003049F82C2041F82C2073E7E8B1E4
:102740001D4B49F8202002AA43F8202055E71B49D9
:102750001B480B68019243F080630B6003681949C2
:1027600023F080430360152006F04CFD164B019AC0
:102770004FF40011196098F80000ADE70F4C1048B5
:102780002368019243F08063236003680D4923F0BE
:1027900080430360152006F035FD0B4B019A4FF482
:1027A0000011196098F800004FFA80FC8100C7E71B
:1027B00094E9FF1F245D0100481A002004700440C2
:1027C000007004409504000000E100E0691A002058
:1027D000281A00202DE9F04706F00CFCA94BAA4866
:1027E000AA4A186000254FF47A769E60A8491D71A8
:1027F00018461D73A74CA84EA84F0AF0D9FD4FF0FC
:10280000FF31A74805F02CFB2268757235613572DF
:10281000F56037600AB92FE11A465369002BFBD1E6
:1028200056614FF000089F4D9F4B9B48C6F814809F
:10283000A6F80480A6F8068086F80A80336001F0C6
:10284000EDFC012005F22472434641462F6085F8D5
:102850000880C5F80C8068722A61AE4601E0DEF897
:10286000102042F823106A7A8E4801339A42F6DC2F
:102870002268884B0AB901E11A465369002BFBD143
:1028800055614FF000088949DFF894E2296042461B
:1028900001234FF480718648C5F81480A5F80480A0
:1028A000A5F8068085F80A80C5F818E185F8218723
:1028B00085F8228709F08AFF7E4AC5F81C814FF00F
:1028C000010E02F118011760082782F809E043465B
:1028D000404682F80880C2F80C801161964685F85F
:1028E000207701E0DEF8101041F82300517A714F93
:1028F00001339942F6DC2168664B09B9C0E01946FC
:102900004B69002BFBD14A61DFF818826A4F6B4B91
:1029100013600024404654619480D480947282F8FD
:10292000F440C8F8006082F8F540C2F8F04082F840
:10293000F64088F80840C8F8042088F80940C8F82C
:102940000C4088F8104008F0EBFA504A5C49DFF878
:10295000D8A140460AF02CFD38463C723E607D60AE
:102960007C72FC603C7408F0DBFA3846474A5449F4
:10297000DFF8B881534D544E0AF01AFD534B544AB8
:102980001A600A22D8F800101A724FF087400BF034
:10299000D7FB4FF0FF09CAF800004E4B85F82540E1
:1029A000012785F82490394A4B496C632846AC636B
:1029B00085F83C402B6085F826700AF0F9FC474BFF
:1029C00086F8249086F82540304A454933603046E1
:1029D00086F8274086F8284086F826700AF0E8FC3A
:1029E0002A4631463F48404D404EFFF7A3FD274A57
:1029F0003F493C480AF0DCFC3E4B3F4A3F484049D7
:102A000014744FF0640E4FF47A7783F860E45474D2
:102A10001471147397601060DC711C4A83F83C4495
:102A200083F83D4483F86A44C3F86C148027354921
:102A30002C6028462F710AF0BBFC334B18680BF052
:102A400077FA0146D8F800000BF07AFB2F4B0146CD
:102A500019602F480BF074FB214630602D4808F0B8
:102A6000D7FE2D49094A2B480AF0A2FC06212B4823
:102A7000BDE8F04706F066B82660D2E6186000E7C9
:102A80001F6041E7B4190020806C0100FCEFFF1FBC
:102A9000490800007C1E0020B80A0020F45C0100F8
:102AA000A409002010110020A46501007C6501002C
:102AB00038180020A008002008040020B06501009C
:102AC000690800006C0A0020D40A0020F0100020E1
:102AD00088650100DC660100CD060000F06601009B
:102AE00025070000DC090020F80B002098010020D9
:102AF000110600001C04002054190020005D010094
:102B0000000002385D0800003CF0FF1F9401002027
:102B100000007A449008002091B70000000B0020CC
:102B200074630100F4030020600A002044F0FF1FDA
:102B3000F8B5124C14230E4601250746C0F30721B1
:102B4000204684F83B3084F85E5084F85D5001F0F4
:102B50006BFDF9B2204601F067FDC6F30721204660
:102B600001F062FDF1B2204601F05EFD29462046EB
:102B700001F0FCFEB0FA80F04009F8BD50F0FF1FF4
:102B800008B544F260013020FFF7D2FF6C21262007
:102B9000FFF7CEFF4FF4F8712820FFF7C9FF00219F
:102BA0002A20FFF7C5FF40F622712C20FFF7C0FF57
:102BB00044F246413C20FFF7BBFF40F2371124208E
:102BC000FFF7B6FFAB213020FFF7B2FF63210220F1
:102BD000FFF7AEFF4FF4C87006F00EFC41F6191176
:102BE0002E20FFF7A5FF04210846FFF7A1FF4FF4B1
:102BF00098710620FFF79CFF00210A20FFF798FF3D
:102C000008210E20FFF794FF4FF63C711020FFF7CC
:102C10008FFF47F67F712220FFF78AFF00214FF4D4
:102C20009270FFF785FF14212420FFF781FF002118
:102C30002A20FFF77DFF00212020FFF779FF0120E8
:102C400008BD00BF10B501210820154C06F0BAFBE5
:102C50000A2006F0D1FBFFF793FF204655222021E2
:102C600001F0E2F838B1E28842F0040292B2204664
:102C7000242101F0D9F80021094801F0D9F9094BC4
:102C800007481A78114601F089F9054801F07CF9E6
:102C9000034801F08FF9BDE81040FEF7B3B900BF5B
:102CA000F010002030F0FF1F2DE9F04F83B0FEF749
:102CB00023FA974B974C984DD3F8008097480323FD
:102CC0006B60A3600423AB60E3600523EB602361CA
:102CD00006232B6163610723012702266B61A36131
:102CE00008234146AB61E361276066602E600BF00C
:102CF00027FA0BF04DFB03464146EB6123628848FF
:102D00000BF01EFA0BF044FB034641462B62636254
:102D100084480BF015FA0BF03BFB834968623A4696
:102D2000002303E055F8046F54F8042F0133B61A5A
:102D30000A2B41F8046BF5D141F2883006F05CFBB8
:102D400001210F2006F052FB00210F2006F03AFB74
:102D50000121102006F04AFB0121102006F032FB71
:102D60000121112006F042FB0021112006F02AFB70
:102D70000021222006F03AFB0021232006F036FB3A
:102D80000121032006F032FB0121032006F01AFB8B
:102D9000664C4FF4FA7006F02FFB0025644801F0F2
:102DA00057FC2560642006F027FB1022216861484B
:102DB0002B4608F0CDFB5F4808F0BAFB4FF43053C8
:102DC0002360642006F018FB4FF434532360642022
:102DD00006F012FB1221584807F0CAFE554808F0C9
:102DE000A7FB032506F0D6FAFEF736FF4FF47A70FC
:102DF00006F002FB013DF5D1FEF7C8F901233C22A4
:102E000002214E4805F0B6F8FEF7FAFD09224C49BA
:102E10004A4808F051FB494808F08AFB474805F04A
:102E2000B3F9484B1B68002B52D12946102006F0FD
:102E3000C9FA0121112006F0C5FA4FF47A7006F0A4
:102E4000DBFA0121102006F0BDFA0B223E493B4877
:102E500008F032FB394808F06BFB384805F094F96C
:102E6000222006F049F80546232006F045F80446DE
:102E7000FEF7C6FD0B223449304808F01DFB2F48F1
:102E800008F056FB2D4808F053FB08222F492B4829
:102E900008F012FB2946294808F09AFB274808F059
:102EA00047FB264808F044FB08222949234808F03C
:102EB00003FB2146214808F08BFB204808F038FB33
:102EC0001E4805F061F94FF47A7006F095FAC7E7ED
:102ED000204C2148072101F0FBFF04F58C660E21F0
:102EE0001D4802F03DF8304604F26C414FF0384383
:102EF0000A2203F02BFBA8BB18490E48FDF7FEFC85
:102F000017490E48FDF7FAFC0C4805F03DF9FEE7BD
:102F100094010020080A0020D00B00200000FA4491
:102F200000409C4500409C460C01002010D003400E
:102F300050F0FF1F8CF6FF1F7C610100A4090020E8
:102F4000906101009C1900209C610100A8610100B2
:102F5000B46101001C04002028F1FF1F4862010039
:102F60006862010004F23C40266002F0F3F801219F
:102F7000204603F09FF9002800F0FF808F4C04F2F8
:102F80003C452846214602F043FA0028B4D094F884
:102F90003C3413F0700FAFD0894B8A4C1D60FEF7A4
:102FA00075FD40F2E24006F039FB002006F0ACFB74
:102FB000FFF7B0FA4FF4FA6006F01EFAFFF7AAFA2C
:102FC00081498248FDF79AFC4FF47A7006F014FAB2
:102FD000FFF7A0FA7E497F48FDF790FCFEF710FD51
:102FE0007D497E48FDF78AFC7D497C48FDF786FCDB
:102FF0007A4805F0C9F8236813BB4FF47A7006F0DD
:10300000FBF9FFF787FA0821764806F0DFFC6F48E6
:1030100008F08EFA4FF47A7006F0EEF9FFF77AFABC
:103020000821714806F0D2FC684808F081FA4FF494
:103030007A7006F0E1F9FFF76DFA2368002BDCD017
:10304000DFF800A2DFF80082684F694EDAF800501E
:10305000D8F80020396830680195664DDFF8EC91AA
:103060002D68D9F800300095FEF7DCFD624B1B7827
:10307000D3B1DFF850B1236833B9FEF7E3FFDBF8D3
:103080000030002B00F08180DAF80040594DD8F86C
:1030900000202D6839683068D9F80030009504F5B3
:1030A000FA640194FEF7BEFDFEF7AAFC4A494B48BC
:1030B000524F534E534DFDF721FC1E22002147482D
:1030C00004F02EFC50494548FDF70AFC4F4B1868A8
:1030D0000AF0D8FA022402460B4600943F4808F052
:1030E0007FFA3E4808F024FA49493C48FDF7F8FBCE
:1030F000484B18680AF0C6FA009402460B46374857
:1031000008F06EFA354805F03FF8FDF767FE01213B
:10311000082006F057F9404804F008FAFDF7B8FD1A
:1031200006F038F93D4B3E4A1B68126890FBF3F4F9
:103130003C49386003FB04339C18104633600C6034
:103140000AF0F6FE384B19680AF046FF4FF06E5150
:103150000AF042FF0BF01CF964212860334807F0A5
:103160000BFEFFF76FFD3249324B00204FF0FF326C
:1031700008601A6003B0BDE8F08F2946204603F0CE
:1031800099F800287FF4FAAEB6E62B491148FDF70E
:10319000B5FBFEF735FC114808F0CAF927490F487E
:1031A000FDF7ACFB26490D48FDF7A8FB0B4804F0E2
:1031B000EBFF4FF4FA6006F01FF95CE71C040020F7
:1031C0001C1A0020B0190020C061010064F6FF1F26
:1031D000CC6101008CF6FF1F90610100A409002062
:1031E000DC610100EC610100F86101000CF0FF1FDF
:1031F00010F0FF1F08F0FF1F901900208C01002025
:10320000AC0A0020A419002038620100680A0020DE
:1032100040620100A0090020D507000028F0FF1F30
:1032200018F0FF1FEC10002044F0FF1F0082FF1F6A
:10323000081100205C0A00200462010018620100ED
:103240002862010024F0FF1F9419002020F0FF1FC6
:1032500038B50C4605460121234804F065FB2AB227
:103260000021214804F05CFB204604F081F801466F
:103270001D4808F0ADF92D211B4804F017FB20462E
:1032800004F068F80146184808F0A2F92D21164804
:1032900004F00CFB204604F04FF80146124808F0F9
:1032A00097F902221149104808F006F9204604F067
:1032B00019F8092804DC01220D490B4808F0FCF834
:1032C000204604F00FF80146074808F081F920462F
:1032D00004F016F8FEF78CFC204604F01FF8BDE859
:1032E0003840FEF785BC00BFA409002074620100CD
:1032F000686802002DE9F04F85B006F04BF8B84B36
:10330000DFF858831B68C8F80000022B06D08BB189
:10331000012B2ED030BF05B0BDE8F08FB14B1B782C
:10332000002BF7D0B04808F07DF8FDF7ADFDAC4AB2
:1033300000231360DFF82893642006F05DF8D9F8C5
:103340000030002B00F00D81A84B1B78002B40F0C3
:103350000381A74F3B78002B40F0C281A54CD8F8E1
:10336000002023689A4280F281819D4B1B68012BCB
:10337000D0D1FDF74BFCA04B93F82237002B48D05F
:103380009E4A9F4913680391013313609A4A9D49ED
:10339000DFF8D0A2DFF8D0920291002382F8223722
:1033A000039B5AF804BB53F8046B0393B34528DA24
:1033B000029B18680AF0BCFD8F4BD9F800500BF146
:1033C0000C04074603EB440414E020880AF0ACFD2B
:1033D0004FF062510AF000FE39460AF0B1FE014694
:1033E00028460AF0F1FC0BF1010BB34504F102048D
:1033F000054604D0BBF17F0FE7D90020ECE7C9F800
:103400000000029B043302937F4B9A4509F10409A3
:10341000C6D17E4A7E4B12681B689A42FFF47AAF8F
:103420007C4B7D4C1868724F0AF082FD7B490AF094
:1034300087FE21680AF0C8FC794920600AF088FFFD
:1034400008B100233B70FDF7EFFBDFF814923B78E7
:103450000022C9F80020002B40F0ED82012111204C
:1034600005F0B0FF0021102005F0ACFF01210F2076
:1034700005F0A8FF4FF47A7005F0BEFF012110207F
:1034800005F0A0FF05F086FF05462220C8F8005091
:1034900005F032FD0A2106466248634C07F068FBDE
:1034A000624808F045F814E0C82E18DD05F072FFF8
:1034B000C8F80000222005F01FFD014606465B48C3
:1034C00008F086F8594808F033F84FF4FA6005F030
:1034D00093FFD8F8003022685B1B9342E4DB9A42EA
:1034E00080F2FA813B78002B40F0878305F052FF91
:1034F00005462320C8F8005005F0FEFC0B214C487F
:1035000007F036FB494808F013F8D8F80030226875
:103510005B1B01269A423D78C0F2EF80002D40F0FF
:10352000228286F00105EBE0424D434C2D68246871
:10353000424B434A434944481B6812680968006883
:103540008DE83000FEF76EFB284B1B78002B3FF414
:1035500000AFD9F800303BB30021052005F032FF61
:10356000F7E6FEF7D7FF0821384806F02FFA38486B
:1035700007F0DEFFC82005F03FFFFEF7CBFF082174
:10358000344806F023FA324807F0D2FFC82005F08D
:1035900033FFFEF7BFFFD9F80030002BC4D1134B27
:1035A0001B78002B3FF4D5AE2B4B44F620621A60FB
:1035B000FEF748FDD9F80030002B3FF4CAAE1D4D90
:1035C0001D4C2D6824681D4B1D4A1E491E481B6852
:1035D0001268096800688DE83000FEF723FBB8E642
:1035E0000811002090010020F80B00209019002005
:1035F00040F0FF1FAC0A0020101100200411002031
:10360000D00B00200C010020300A002050010020C7
:10361000A419002018F0FF1FB00A00200000614527
:10362000CDCCCC3DB86201002CF0FF1F8CF6FF1F03
:10363000C462010024F0FF1F08F0FF1F20F0FF1FED
:10364000941900200CF0FF1F10F0FF1FEC61010027
:1036500064F6FF1FF86101001CF0FF1F8C010020C1
:10366000B0190020080A0020300A00200D21C948A6
:10367000C94D07F07DFAC94807F05AFF2B68002BA7
:1036800000F09182C64BC74A21681B681268C64D7C
:10369000C6480B441A440E2122602B6007F068FADA
:1036A00005F078FEFEF7D8FA0B21C14807F060FA62
:1036B0002868FEF7D1FA0B21BE4807F059FA2068B6
:1036C000FEF7CAFAAE21BC4804F0E6FBBB4A012370
:1036D0001360FDF7CDFF0021052005F073FE44E6E1
:1036E000FEF78EF9FEF724FAD8F800103720FFF71E
:1036F000AFFDB14804F048FD30E6002D40F05B829C
:1037000005F048FE19210646AD48C8F8006007F0EC
:103710002FFAA24807F00CFF222005F0EDFB8246AD
:103720004FF47A7005F068FE0A21A64807F020FAE7
:1037300051469A4807F04CFF984807F0F9FE05F00B
:1037400029FE2368C8F80000BAF57A7FD4BF0022AA
:1037500005F00102801B9842ACBF002002F001007E
:10376000BAF1130FCCBF002301230028D4D1002BC2
:10377000D2D19A461946102005F024FE5146112058
:1037800005F020FE904C4FF47A7005F035FE0121D3
:10379000102005F017FE04F58C65642005F02CFE62
:1037A000284604F26C414FF038430A2202F0CEFE64
:1037B000002840F054810021102005F003FE4FF452
:1037C0007A7005F019FE0121102005F0FBFD4FF481
:1037D0007A7005F011FE11217C4807F0C9F96F4895
:1037E00007F0A6FE7A4B1B78002B00F05781FDF7FF
:1037F000B5FF3B78002B40F06A8100210F2005F0D7
:10380000E1FD744B1B78002B40F04B81724B002183
:1038100003F1280243F8041B9342FBD16F493A7825
:1038200000230B60C9F80030002A40F0AE8141F25D
:10383000883005F0E1FD6A4B6A4D1C686A4EDFF87E
:10384000C89105F0A7FD694A694B1268201A841ACD
:1038500024EAE47483FB04232344E017C0EBE32051
:1038600009F0FEFE09F090F80AF010FA614A624B86
:10387000286002FB004483FB042323448046E017B6
:10388000C0EB631009F0ECFE09F07EF80AF0FEF9D7
:1038900003011A1AC31A04EB830492004FF4616304
:1038A00003FB0828346044440E2CC9F8000000F3E0
:1038B0002D813B78002B40F02281404A0023136089
:1038C000FDF7FEFE4D4B1B78002B3FF423AD01218D
:1038D000052005F077FD1DE53E78002E40F096802E
:1038E00005F058FD05462320C8F8005005F004FBFC
:1038F0000B218246424807F03BF9284807F018FEA2
:10390000D8F800302268BAF1C80FCCBF314646F073
:1039100001015B1B00297FF4FDAD934204DBF9E557
:10392000BAF1C80F7FF7F6AD05F034FDC8F8000016
:10393000232005F0E1FA01468246184807F048FEC8
:10394000164807F0F5FD4FF4FA6005F055FDD8F87C
:10395000003022685B1B9342B4BF314646F0010140
:103960000029DDD0D6E501233C220221124804F0D3
:1039700001FBFEF745F80A2222490F4807F09CFD9B
:103980000D4807F0D5FD002E40F025810A4804F0CF
:10399000FBFBB5E678620100980900208CF6FF1F5A
:1039A00018F0FF1F00F0FF1FEC10002088620100DC
:1039B00098620100A4620100A409002008110020FF
:1039C000E8620100046301001C0400206063010040
:1039D0009819002048F0FF1F300A00200411002031
:1039E000AC0A002084010020AC19002014F0FF1F55
:1039F000C5B3A291F0F1FFFF898888889019002053
:103A0000C4620100D0620100FC10002001233C22AE
:103A10000221874804F0AEFAFDF7F2FF0A22854939
:103A2000834807F049FD824807F082FD0026804860
:103A300004F0AAFB54E701233C2202217C4804F055
:103A400099FAFDF7DDFF07227B49794807F034FD3D
:103A5000774807F06DFD764804F096FBFEE404F22B
:103A60003C40256001F076FB0121204602F022FC5B
:103A7000002800F0BA80714C04F23C4528462146EB
:103A800001F0C6FC00283FF496AE94F83C3413F0E5
:103A9000700F3FF490AE6A4B1D60A3E6FEF780FB0B
:103AA000A5E61621674807F063F8674807F040FD70
:103AB000FEF712F84FF47A7005F09EFCFEF72AFD2F
:103AC0004FF47A7005F098FCFEF724FD9EE6FDF7B2
:103AD00097FF07225D49564807F0EEFC544807F06F
:103AE00027FD534807F024FD5949514807F0FAFCD7
:103AF0004F4807F01DFD4E4804F046FB7DE60123CC
:103B00003C2202214A4804F035FAD6E6002108207A
:103B100005F058FC0021082005F054FC05F03AFCA3
:103B2000FEF79AF810214B4807F022F8296846481A
:103B300007F04EFDD9F80010434807F049FD316801
:103B4000414807F045FD404807F0F2FC642005F0CD
:103B500053FCAE21364804F09FF9337899F80020E1
:103B600029783D4803F0AAFA06213C4803F04EF8B4
:103B700005F010FCFEF770F80121082005F022FC8A
:103B8000FFF760F806F000F893E6FDF739FF0E2224
:103B90003349274807F090FC254807F0C9FC244822
:103BA00004F0F2FA43E60A210E20FEF7C1FF4FF0BF
:103BB000FF332B6066E501233C2202211C4804F000
:103BC000D9F9FDF71DFF0A222649194807F074FCB0
:103BD000174807F0ADFC0A222349154807F06CFC92
:103BE000134807F0A5FC0025D0E60146204602F068
:103BF00061FB00287FF43FAFDDE501233C22022179
:103C00000B4804F0B7F9FDF7FBFE0A220949084802
:103C100007F052FC064807F08BFC0A2212490448C0
:103C200007F04AFC024807F083FC0126FFE600BFCC
:103C3000A409002054630100B06201001C040020AC
:103C40001C1A0020186301008CF6FF1F106301008E
:103C500090080020406301006C0A0020DC0900206D
:103C600030630100D0620100DC620100F8B5002180
:103C7000054607F049F9002855D0D5F81C710646CD
:103C8000002F4ED005F58E743B1D224605F5907130
:103C900007F5827733F8020B42F8040F9F42F9D1FF
:103CA000331D05F5477206F5827733F8020B42F8AB
:103CB000040FBB42F9D1D5F8180180B105F5927215
:103CC00000F5007E32F9043C30F9027B03FB07F378
:103CD000DB13864522F8043C02F10402F2D105F51B
:103CE000E56008F055FD95F82177EFB905F21C5C09
:103CF00095F82027E64605F21C7154F8043F23FB93
:103D000003F3B3FBF2F34EF8043F7145F5D17B1C8E
:103D1000DBB2934220D085F82137D5F81C0107F09B
:103D2000AFF8C5F81C61F8BD05F21C5C95F82027BA
:103D3000E64605F21C7154F8043F23FB03F35EF8DA
:103D4000040FB3FBF2F371450344CEF80030F2D117
:103D50007B1CDBB29342DED10023DFF83CE085F828
:103D60002137604605F1160750F8044FB4FA84F382
:103D700081423EF81320B4FBF2F31A444FEA520397
:103D8000B4FBF3F423444FEA530327F8023FEBD18B
:103D9000012385F82237C0E7B46501000020704791
:103DA00000207047F8B51F4C027A0E465200C1F34E
:103DB000072101250746204684F83B2084F85E5001
:103DC00084F85D5000F030FCF1B2204600F02CFC8D
:103DD0002046002100F0CAFD08B10020F8BD2B46A6
:103DE000397A0222204600F04BFE0128F5D994F8DA
:103DF000381094F83950A94210D263184A1CD2B234
:103E0000187E84F8382095424FEA002306D92244D0
:103E10000231107E84F838101843F8BD4FF0FF309F
:103E2000F8BD00BF50F0FF1FF8B5144C037A2429E9
:103E300008BFC2805B0001250E462046C1F3072162
:103E4000174684F83B3084F85E5084F85D5000F0EB
:103E5000EBFBF1B2204600F0E7FBC7F30721204659
:103E600000F0E2FBF9B2204600F0DEFB29462046D6
:103E700000F07CFDB0FA80F04009F8BD50F0FF1F63
:103E800038B5012504460571334800F0E1FB0520F3
:103E900005F0B2FA204644F260023021FFF7C4FF79
:103EA00020466C222621FFF7BFFF20464FF4F9720F
:103EB0002821FFF7B9FF204640F622722C21FFF798
:103EC000B3FF204644F246423C21FFF7ADFF2046B7
:103ED00040F237122421FFF7A7FF204644F2FF02E9
:103EE0003021FFF7A1FF732202212046FFF79CFF3C
:103EF0004FF4C87005F080FA204641F61D522E217D
:103F0000FFF792FF042211462046FFF78DFF20465F
:103F10004FF498720621FFF787FF204610220A21EE
:103F2000FFF782FF204600220E21FFF77DFF20468B
:103F300043F63C421021FFF777FF204647F67F7299
:103F40002221FFF771FF204636222421FFF76CFF64
:103F50006572284638BD00BF50F0FF1FF8B51C46FB
:103F6000154606460F46FFF71DFF20EA040040EA0B
:103F70000504394630462246FFF756FF002814BF95
:103F800020460020F8BD00BF08B5002201234FF4F1
:103F90009271FFF7E3FF80B208BD00BF0F2928BF71
:103FA0000F210F2A28BF0F2242EA01122021FFF71A
:103FB0003BBF00BF10B510220A210446FFF734FFB3
:103FC00030B1204600224FF48071FFF72DFF80B200
:103FD00010BD00BF10B5044619B1012911D0002051
:103FE00010BD55222021FFF71FFF0028F7D0E288DF
:103FF00042F00402204692B22421BDE81040FFF7AF
:1040000013BF40F273122A21FFF70EFF0028E6D0FB
:10401000882220212046FFF707FF0028DFD0E28812
:10402000204622F004022421BDE81040FFF7FCBE28
:1040300038B50546F1B1802903799ABFC1F18004F2
:1040400044EA0424002433B9224628462221BDE84C
:104050003840FFF7E9BEC288002322F01002037146
:104060002421FFF7E1FE224628462221BDE8384000
:10407000FFF7DABE0123037147F67F722221FFF7B3
:10408000D3FEEA8842F01002284692B22421BDE80D
:104090003840FFF7C9BE00BF0B4610B507490446BC
:1040A000184609F099FF064909F08EFE0AF096F9C4
:1040B00001462046BDE81040FFF7BABF00000143AB
:1040C000EE7CFF3E10B5044607F05AF8204610BDBE
:1040D000024A0349034809F06BB900BFFCEFFF1F18
:1040E000C5400000C41900201B4A1C4B11681C4825
:1040F000096970B499421279027009D2194A12788A
:1041000032B3194A4FF08041116003F5807402E028
:104110001C46A3F58073154A154912680D68AAB1AB
:10412000A5B1144E3088402810D841000A444030D0
:10413000294402320231308033F9040B22F8020F95
:104140009C4233F9020C21F8020FF5D870BC70477D
:1041500003F58074DFE700BFD419002090E8FF1F4B
:104160001F800040CE19002008E200E0DC1900208A
:10417000D0190020CC190020F8B5064606F02CFE18
:104180000446E8B106F028FE054600283AD072B68B
:104190001F4B1A887F2A19D8002C31D01D490A6874
:1041A00042B162B6204606F06BFE2846BDE8F840F4
:1041B00006F066BE18480C601A80056062B6F8BD4D
:1041C000054672B6124B1A887F2AE5D9114A124960
:1041D0001768146000220C681A800D6062B63946B8
:1041E000304606F077FE384606F04AFE3046214655
:1041F000012206F06FFE2046BDE8F84006F040BE02
:1042000062B6F8BD204606F03BFE2C46BFE700BF75
:10421000CC190020DC190020D0190020F8B5284C5A
:10422000284E2046012106F047FF00F083F8264B78
:10423000264A27484FF480611960236800211A60DC
:1042400099802279186102F1804202F5043240F22D
:104250000110D8809E614FF48075022006278E26BB
:10426000DD82D960DD8398609F839882117016701B
:1042700006F0C8FE1749184B2279184F08701A70BB
:1042800039682279164C174D174E41F0124141F012
:104290000101531139609B00206803F1604302F172
:1042A000100703F5614302F01F02012140F01040A6
:1042B00001FA02F2206045F827601A60F8BD00BFDD
:1042C000D419002000FEFFFF14B00440A0F002400B
:1042D00090E7FF1FCE1900201B80004080F00240B5
:1042E00000F0024000EAFF1FE9400000024A0349D3
:1042F000034809F05DB800BFFCEFFF1FC540000098
:10430000D4190020024A0349034809F051B800BFFC
:10431000FCEFFF1FC5400000E0190020024A0349DE
:10432000034809F045B800BFFCEFFF1FC54000007F
:10433000E8190020284B29491A68294842F400420C
:104340001A600A6842F002020A601A6842F0020229
:104350001A600368002B3DDB224B1B68002B39DB06
:10436000214A4FF0864313601368002BFCDBF0B545
:104370001E4C1F48DFF8ACE01E491F4B1F4A204F60
:10438000204E214D47F2320CC4F800C000240460D6
:104390000120CEF80000DFF890E0C1F800E04FF413
:1043A00080311960194B1360DFF880E0184A3A60D9
:1043B000346028601748CEF80000174CB9671748DA
:1043C000174946F8503C4FF4C0632A6123600360EC
:1043D0000B60F0BD704700BF3C800440408004404B
:1043E00000F0024080F0024000F1024004F102407F
:1043F00060F0024008F002400CF0024010F0024071
:1044000014F00240E0F0024084F002401B0F010073
:10441000000F0F0F0300004708B004400CB0044029
:1044200018B0044004F002400300000788F0024086
:10443000024A0349034808F0BBBF00BFFCEFFF1F5F
:10444000C5400000F0190020024A0349034808F063
:10445000AFBF00BFFCEFFF1FC5400000F8190020F0
:10446000024A0349034808F0A3BF00BFFCEFFF1F47
:10447000C5400000001A0020024A0349034808F022
:1044800097BF00BFFCEFFF1FC5400000081A0020C7
:10449000024A0349034808F08BBF00BFFCEFFF1F2F
:1044A000C5400000101A002010B50021044606F097
:1044B0002BFD98B194F8F6308BB194F8F43094F861
:1044C000F5200133342BC8BF0023934207D09A1D37
:1044D00004EB8202DBB2506084F8F43010BDBDE81A
:1044E000104006F0CDBC00BF90F8F42090F8F530F5
:1044F000D0B2DBB2984238BF3530C01A704700BF27
:1045000038B50546D0F8F00020B106F0B9FC00231C
:10451000C5F8F03095F8F54095F8F430E4B2DBB228
:104520009C420ED00134352C28BF0024A31D05EB7E
:104530008303586806F0A4FC95F8F430DBB29C4283
:10454000F0D1DBB285F8F53038BD00BF0246D0F8B7
:10455000F000B0B992F8F53092F8F410DBB28B426B
:1045600010D00133342B86BF01460B46D9B2063337
:1045700002EB83035868C2F8F00082F8F5100430AB
:1045800070470020704700BFD0F8F03043B110B53D
:104590000446184606F074FC0023C4F8F03010BD41
:1045A000704700BF90F8392090F83800101A704713
:1045B00090F8383090F839209A4205D95A1C0344B3
:1045C00080F83820187E70474FF0FF30704700BFEA
:1045D00090F8383090F839209A4286BF1B18187E20
:1045E0004FF0FF30704700BF704700BF38B5054639
:1045F000B0F85E0090B195F85D301446C3F1210229
:1046000094420CD805F13B001844224604F0A2FA6B
:1046100095F85D30234485F85D30204638BD012093
:1046200014462871EEE700BFB0F85E306BB190F829
:104630005D30202B07D8C218013380F85D3001208F
:1046400082F83B107047012303710020704700BFC0
:104650000023426980F8383080F8393080F85C30C7
:1046600080F85D3080F85E3080F85F3006CA30B484
:104670000D68046943662A4383660A60A370426931
:1046800090F861301649146813441D7A5B7B01EB86
:10469000C5051B026D6803F4E06343F064032B60FF
:1046A00090F8623013449D7CDB7D01EBC5011B0259
:1046B000496803F4E06343F064030B6021685368C6
:1046C000194205D0036928225A70036903229A719E
:1046D000036920225A71036980229A7030BC7047A6
:1046E000D86C010010B50269D378DBB2D906044654
:1046F0003DD510215806D17038D503F0040303F0DE
:10470000FF02002B51D03D49626E00230B7084F8EC
:104710005D30002A5BD0904794F85D30002B56D076
:104720002369D0229A70236994F83B201A71236977
:10473000012284F85C200222DA7010BD304B84F82C
:1047400060009C424AD02F4B9C4252D094F83910C2
:1047500013791F29DBB207D82848007820B16018E8
:10476000013184F8391003760223D37010BD590645
:10477000C3D4917801F0100101F0FF000029DDD0D1
:1047800013F001031ED194F85C1094F85D00884288
:1047900081BF4B1C091984F85C3091F83B301371D0
:1047A0002369D0229A702269DEE7236984F83920D0
:1047B000C0229A702369114A1979012111700222CD
:1047C000DA7010BDC023937022691379CCE70122FF
:1047D000002384F85D2084F83B30A1E7626994F8F7
:1047E0006130094913440322187A04F013FD226949
:1047F000ACE7626994F861300449F3E7181A0020C5
:1048000050F0FF1FBCF0FF1F6D480000794800000A
:104810000369DB7803F0200373B190F86030013353
:10482000DBB2012B80F860301AD9426990F8613010
:104830001344187A04F06ABD70B5426903F0FF05AD
:1048400090F8613013440446187A04F05FFDA36EBB
:104850005BB184F8385094F83900BDE870401847CF
:1048600090F85F30002BE0D0704770BD0148FFF733
:10487000CFBF00BF50F0FF1F0148FFF7C9BF00BF07
:10488000BCF0FF1F2DE9F047364FDFF8DC903B68A6
:10489000026982B006460093DDF800800021782589
:1048A000D3789B065AD53B680193019BC8EB030361
:1048B0000F2BF5D949B1102BF2D00020907033693D
:1048C00080229A7002B0BDE8F087726996F8613074
:1048D00013440521187A04F089FD726996F8613055
:1048E0001344012193F812A0504604F07FFD0924DF
:1048F0000021504604F066FD2B46013BFDD101210D
:10490000504604F05FFD2B46013BFDD1013CEFD149
:10491000706996F861100144F0220C7A4B7B09EB28
:10492000C4011B02496803F4E06343F064030B60B5
:1049300096F862300344997CDB7D09EBC1011B02D0
:10494000496803F4E06343F064030B60013AFDD16E
:104950003269D3789B064FF00101A4D4012002B044
:10496000BDE8F087E41C0020D86C0100F0B50369B5
:104970001222DA700269937803F0200385B00446AE
:104980000D46002B5ED0B42393703C4922690B681E
:104990000093009E05E00B680193019B9B1B042B79
:1049A00042D8D37803F0200303F0FF00002BF2D0AD
:1049B00094F85D30002B31D04FF0000E4FF0020C18
:1049C00004EB0E0393F83B3013710B680393039FC2
:1049D000206907E09B060DD50B680293029BDB1B49
:1049E000052B28D8C378DBB203F0020202F0FF06E1
:1049F000002AEFD080F803C02669F378DBB2DF0627
:104A000032462DD49F062BD5DB0731D40EF1010E93
:104A100094F85D305FFA8EFE7345D1D800201DBB3F
:104A2000002384F85E3004E09070236980229A703D
:104A3000042005B0F0BD86702369802204209A709E
:104A400005B0F0BD03F0FF06FFF71CFF10B904200E
:104A500005B0F0BD236984F85F60B0229A7094E7D6
:104A60008023B3700420DAE726698023B370D7E788
:104A7000BEF1000F0CBF02200320F6E7E41C00206B
:104A80002DE9F04106690025122780F8385080F89A
:104A90003950F770D0F810C09CF802E00EF0200EEC
:104AA00088B00446884615461E46BEF1000F49D020
:104AB000B4238CF80230784B21691A680092DDF833
:104AC00000E006E01A6801920198CEEB000004288D
:104AD00030D8C87800F0200000F0FF070028F1D09F
:104AE0004FEA480242F00102D2B20A711A680292F9
:104AF000DDF808E0206906E01A6803920399CEEB1E
:104B0000010105292AD8C17801F0020101F0FF074F
:104B10000029F1D04FF0020C80F803C02269D1784F
:104B200011F0110722D12DBB002E0CBFA023802332
:104B3000937003E08F70236980229A70384608B022
:104B4000BDE8F0810EF0FF07FFF79CFE0028F5D0CE
:104B5000236984F85F70B0229A70ACE7877023698C
:104B6000802238469A7008B0BDE8F08180239370A7
:104B70000027E3E7012D75D0A021917021690A7902
:104B8000BE4667464FF0A80C1A680492049805E0E8
:104B90001A680592059A121A052A4AD8CA7802F0AC
:104BA000020202F0FF08002AF2D0CF702169CA7811
:104BB000D2B212F0100F08465AD1920658D5013DD4
:104BC000EDB2012D49D0BEF11F0F3BD90A79012D5D
:104BD000DAD11A680692069D05E01A680792079ACC
:104BE000521B052A46D8C27802F0020202F0FF01E9
:104BF000002AF2D00223C3702269D378DBB2D9062F
:104C00003AD49B0634D5B023BEF11F0F93703FD822
:104C1000226904EB0E0312791A760EF1010E5FFA87
:104C20008EFE16B1236980229A7084F839E07746A7
:104C300084E781F80280236980229A70774684F89D
:104C400039E07BE704EB0E0291F8048082F81880CB
:104C50000EF1010E5FFA8EFEB9E781F802C02169FC
:104C60000846B0E7A82191702069BE460279B0E7F6
:104C7000774663E78170DEE710217823D170013B2E
:104C8000FDD12269937803F0F7037746937055E7D7
:104C900023691B79C5E700BFE41C00200148FFF72A
:104CA00021BD00BF50F0FF1F0148FFF71BBD00BF33
:104CB000BCF0FF1F10B4047F4160022CC26002D020
:104CC00010BC06F077BA836810BC1847F0B4464BA6
:104CD000464A186BDC6A01791170454922790A70DD
:104CE0009A6A00790870002A46D05968C9688A42D1
:104CF0003ED82168CC8B240402F1FF3065D4C0F388
:104D00000E00C883C88B80B2C882196B0968C88B33
:104D1000000452D4C2F30E00C883C88B002480B2B2
:104D200012F1FF32C88218BF01229C62D96A2E4854
:104D300009680D6800F12404A54236D00068C468F3
:104D400014F0804F0C680D6815BF24882478023554
:104D5000013544F000440D604463196B254B09791B
:104D60001970214912B1CA6A12791A70F0BC7047E1
:104D7000521A9A620122D9E7586B196805681E4CCD
:104D80000A63CC62CC682D681C4E24F08044032753
:104D9000B542CC6083F825701FD1037F4260022B9F
:104DA000C2601ED0F0BC06F005BA016890F824007D
:104DB000CC6840F000404863CFE7CC8BC2F30800DA
:104DC00004F47E442043C883A7E7CC8BC0F30800DB
:104DD00004F47E442043C88394E72B461146F0BC7C
:104DE00018478368F0BC184728F1FF1F1F80004058
:104DF0001C8000401B80004000000FFFB54C0000ED
:104E000090E80C00F0B41C6859682568164F174EDE
:104E100029432160164D17491760D660156111604E
:104E2000417A154A5C180A3194F8244053F821500D
:104E300002EBC40149680D60017A5C1803EB810143
:104E4000247ECD6902EBC40149680D60817A58184F
:104E500003EB810390F83000596B02EBC002F0BC09
:104E600053681960704700BF01401F0001100038EF
:104E70000110007800001F80D86C010042680368B0
:104E800005CA10B4046822430260D868840100F0A7
:104E9000E06205D5080900F4706021F47041014317
:104EA000D8681143814209D01A68500408D40748D1
:104EB000186041F08040D96018611A6010BC7047DA
:104EC00041F08042D96010BC1A61704701401F0058
:104ED000204A43689A42F0B40FD0427A1A4492F8BA
:104EE0002420914207D093F824408C4215D093F8A7
:104EF00025408C422AD0F0BC70470B2907D00729E7
:104F0000EBD1154C227842F001022270E5E7124CF9
:104F1000227822F001022270DFE7002421461E6879
:104F20005D6836682E420FD00C4D05EBC20200279B
:104F300056685A18376092F8242005EBC2050A31EA
:104F40006A6853F8213013604472D4E70124214683
:104F5000E5E700BF5C660100C21E0020D86C0100BE
:104F6000204A43689A42F0B40FD0827A1A4492F8E9
:104F70003020914207D093F830408C4215D093F8FE
:104F800031408C422BD0F0BC70470D2907D00E2940
:104F9000EBD1154C227842F004022270E5E7124C66
:104FA000227822F004022270DFE7002421461E68E6
:104FB0005D6836682E4210D00C4D05EBC20200270A
:104FC00056685A18376092F830200C3105EBC2054C
:104FD00003EB81036A685B6813608472D3E7012482
:104FE0002146E4E75C660100C21E0020D86C010087
:104FF00038B504460D462422002109F0D7FFA560EC
:10500000EB79102B08D0202B04D1402301202370F2
:10501000A07038BD002038BD202301202370A0706F
:1050200038BD00BF2DE9F041037803F020032BB910
:1050300003F0FF044269204B9A4203D90026304610
:10504000BDE8F08183780169054663F07F038068DD
:10505000AB7005F1100201F0D5F806460028EDD03E
:105060002969A86801F06AF80746A868394624301B
:10507000052201F02DF880460028DFD04FF40072A1
:10508000214609F093FFAB681A79012A0FD9012450
:1050900003E0AB681A79A24209D9E11918684246BF
:1050A00001F0B0FB0134E4B20028F2D1C6E76B692D
:1050B00003EB42226A61C2E7FFFD1F0010B5044600
:1050C00080680A462430A16901F002F820B1A38863
:1050D00003F00F0300EB431010BD00BF38B590F98B
:1050E0000230002B044612DBA56805F1240001F014
:1050F0001DF828B9637843F001036370002038BDC0
:1051000005F50C7001F012F80028F3D038BD01212C
:10511000FFF7D4FF05460028ECD00378E52BE9D053
:1051200023780B4A1B0744BFE369C361236A1268F3
:1051300043831B0C83822AB100F11601183090477B
:105140002B8B6B82A37803F07F03A370CCE700BFA7
:10515000201A002010B5037804461BB900232370E1
:10516000012010BDFFF7BAFF0023237010BD00BF60
:105170002DE9F0430D7815F0700F89B003D10020B0
:1051800009B0BDE8F083C32304460D4600F09AFD44
:105190000028F4D001221023A27023702046FFF7CC
:1051A00041FF0028EBD0237822692262002B6ED1C8
:1051B00001212046FFF782FF06460028DFD010239A
:1051C000C37282687168F3680068B6F81480B6F834
:1051D0001A906F460FC77169B269F369306908AEFA
:1051E0000FC72E2306F8203D0DF10A013346202279
:1051F00003F8012F8B42FBD1216AA06800F09EFFCB
:10520000A3680146012203F1240000F061FF8646F5
:105210000028B4D03746ADF81480ADF81A900FCFFF
:10522000CEF80000CEF80410CEF80820CEF80C30EE
:105230000FCFCEF81000CEF81410CEF81820CEF80C
:105240001C302B6AADF81A302E221B0C3546ADF8F7
:1052500014308DF801200FCD0EF12006CEF820007D
:105260007160B260F3600FCD30617161B261F36162
:10527000A46804F1240000F059FF00283FF47FAF38
:1052800004F50C7009B0BDE8F04300F04FBF63694E
:1052900013B10023236163612046FFF71FFF00283D
:1052A0003FF46DAF84E700BFF0B5064693B03578A4
:1052B000019200208DF824008DF825002DB91F469D
:1052C0000B7813F0700F0C4602D1002013B0F0BD24
:1052D00013782F2B104628D001AA03A900F070FBE9
:1052E00003AA214601230028EFD0019D2D783046E6
:1052F000002D2CD000F0E6FC40B9002FE5D021466F
:1053000003AA3046FFF734FF0028DED035460FCD24
:1053100009AC0FC40FCD0FC433782A68226093B94B
:1053200000233370019809ACD6E70130019003786F
:105330002F2BFAD0A16809A8FFF75AFE0028C4D085
:10534000019809ACC8E73046FFF7C8FEE8E703AAB2
:1053500021463046FFF70CFF13B0F0BDF0B506460E
:1053600093B03578019200208DF824008DF8250047
:105370002DB91F460B7813F0700F0C4602D1002098
:1053800013B0F0BD13782F2B104616D101300190C9
:1053900003782F2BFAD0002B34D0A16809A8FFF78F
:1053A00027FE0028EBD0019809AC06E03046FFF755
:1053B00095FE00230198337009AC01AA03A900F0FF
:1053C000FFFA03AA214601230028D8D0019D2D7899
:1053D00030467DB100F076FC354609AC0028CED0D1
:1053E0000FCD0FC40FCD0FC433782A682260002B75
:1053F000DFD0DBE73B4603AA2146304600F062FCE3
:1054000013B0F0BDA1683046FFF7F2FDB8E700BF6A
:1054100003780BB100207047FFF7EABD2DE9F04F8C
:105420000F46017883B0054611B18378DC0708D4B4
:105430006B784FF0FF3043F002036B7003B0BDE8B0
:10544000F08F0B07914600F18580880608D5AA6881
:105450006B691289C3EB42139BB2994528BF9946E9
:10546000B9F1000F00F094806B698A064E464FF048
:10547000000805F1100AC3F3080B3DD5AA68116AAC
:1054800001EB5321BBF1000F50D1B6F5007F4DD396
:10549000D36A99424AD0B6F5806F64D328788006E3
:1054A000C6F3472B06D41079C8EB0000C0B2834581
:1054B00028BF834699424FEA4B240BD85B4499425C
:1054C00008D202F12400019100F030FE0028AFD094
:1054D000AA68019910685B463A4601F04BF900282A
:1054E000A6D06B69361B234427446B6150D02978C2
:1054F0008A06C3F3080BC1D4A86890F8058008EAAF
:105500005328BBF1000F2CD1B8F1000F29D1002B8B
:1055100033D14C064CBF016A296A296100F00EFEA6
:10552000AA6808EB0001BBF1000FAED002F1240025
:10553000002200F0CDFD00283FF47AAFCBF50074D7
:10554000B44228BF344600EB0B012246384603F034
:1055500001FBC6E7EB696A699B1A994528BF994622
:105560007EE72969DAE710683A4601F0A9F80028D1
:105570003FF45EAF4FF40074B3E75246296900F080
:10558000E3FD0028FFF654AF08D0A8682969C5E7F5
:105590000026C6EB090003B0BDE8F08F2B7813F0AE
:1055A000700FF6D144E700BF2DE9F047814682B085
:1055B000884617461E464FF0FF3A00250124A742B1
:1055C00009DCBAF1000F26DB0023284608F8053075
:1055D00002B0BDE8F08701220DF107014846FFF750
:1055E0001DFF0FFA80FABAF1010FEAD19DF80730DA
:1055F0000D2B30461946E2D008F8053024B22EB102
:1056000009F084FF28B925466C1CD8E70A2B2546EB
:10561000FAD12546D8E74FF0FF3002B0BDE8F08759
:1056200070B582B001220DF1070104464669056993
:10563000FFF7F4FE012805BF9DF8070066614FF0F3
:10564000FF30256102B070BD30B54369C3F3431527
:1056500083B0044605B189B901220DF10701204646
:10566000FFF7DCFE40B201280BD163691F33636191
:10567000A068303000EB451003B030BD20334361EB
:10568000F6E7002003B030BD2DE9F041037807694B
:10569000044693B142698A420E4636D021B921614F
:1056A00066610120BDE8F08118070AD499060BD580
:1056B000A3681B89B6EB431FF2D927610020BDE820
:1056C000F081E1698E42F8D8D4F808E09EF80650DF
:1056D000511E05F10900751EC140C540A94200D800
:1056E000B2B95B064CBFDEF82030236A236104F1B7
:1056F00010084246002DD3D02169A06800F024FD97
:10570000002805F1FF35F4DCD7E70120BDE8F08182
:105710006D1AECE72DE9F041884615460021242258
:1057200004461E469DF8187009F040FCD8F80800A1
:10573000D8F82030E36005F00F02520100F130018B
:105740001144A060A580CB7A1B0714D4831893F86A
:105750003B3003F017032370C97AE77011F0180F7C
:1057600004BF43F00803237016F0320F07D02378EC
:1057700013F0110F03D000202070BDE8F08106F077
:105780000F05A5700244C36AA361B2F84410B2F8D1
:105790004A30F70643EA014107D42162D36CE36142
:1057A000B30607D40120BDE8F08151B965F07F054B
:1057B000A570F5E7E1692046FFF766FF0028F1D103
:1057C000D9E700F05BFD0028D5D0A578EEE700BF53
:1057D00003780BB1FFF782BC012070472DE9F84F29
:1057E00003781E0704466ED583789D076BD55B074B
:1057F0000F46904600F1CB806369DA43904562D84A
:10580000B8F1000F00F0B48046464FF0000932E0D6
:10581000002940F08180216A002900F08880216100
:1058200000F08CFC0146B6F5007F54D3B6F5806FCE
:1058300065D3A2681379D06A5B1BDBB2C6F3472538
:10584000AB4228BF2B4681424FEA432508D8184473
:10585000814205D282F824904FF0FF30D062A268D6
:1058600010683A4601F060F868B36369761B2B4410
:105870002F4463617CD0A0682169457915EA5325DE
:10588000C3F3080A34D1BAF1000FC1D000F056FCBE
:105890000146CAF50075B54228BF35460122A06809
:1058A000243000F015FC70B150442A463946AA4411
:1058B00003F050F9BAF5007FD7D1A068243000F08A
:1058C00035FC0028D1D1637843F0010363704FF0B9
:1058D000FF30BDE8F88F6369E269B6F5007F3546B1
:1058E00028BF4FF40075934234BF01220522D6E74A
:1058F00000F024FC2918BAF1000F94D0C9E7A3687E
:10590000DA6A914221D018683A4600F07BFF0028FD
:10591000D9D04FF40075A8E704F1100B5A4600F0F7
:1059200013FC0028CFDB17D0A068216978E7A378A3
:1059300063F07F03A37004F1100200F063FC002801
:10594000C1D021692162A0686AE783F824904FF0F2
:10595000FF32DA62A368D6E7A3782169A06863F012
:105960007F035A46A37000F04DFC0028DCD1AAE763
:10597000E2699A4212D2A278E36142F08003A370F6
:105980001A0701D523788BB94046BDE8F88FE16945
:10599000FFF77AFE00287FF42FAF94E7074B1B68D0
:1059A00053B1A37843F08003A370E9E72046FFF7E3
:1059B00095FB0028E8D186E7A378E1E7201A0020CC
:1059C0002DE9F04F0378202B03D110F8013F202B55
:1059D000FBD088600378002B00F007812F2B2FD09D
:1059E0005C2B22D0A3F12204E4B21D2C20D9DFF8D5
:1059F00018E2461C00247C2BA3F12005374614D066
:105A00005E2D12D816F8013BA3F12205EDB2013448
:105A1000002B00F0D3802F2B13D05C2B2EFA05F730
:105A200003D01D2DE7D8FF07E5D50020BDE8F08F96
:105A3000754D25FA04F4E407D9D50020BDE8F08FB0
:105A4000002407193E4625462F2302E016F8013FA1
:105A50000135202BFAD02F2BF8D0054415604CB11E
:105A60003A4612F8013D2E2B02D0202B40F0A9809F
:105A7000013CF6D14FF0FF3523464B6001F117068C
:105A800001F10C03202203F8012FB342FBD1461E83
:105A9000002200E0013216F8013F2E2BFAD0202B15
:105AA000F8D0B2FA82FC6E1C4FEA5C1C0CD0475D49
:105AB0002E2F00EB050604D106E016F8017D2E2FEF
:105AC00002D015F1FF35F8D2A2424FF0000980F262
:105AD00091804E46CA4607274FF0080825E02E2B36
